:040000004CEF04F0CD
:1000080000C017F001C016F002C015F0E1CF18F0DB
:10001800E2CF19F09EAA6AD15AC100F05BC101F083
:1000280020DA00C0CBF1000E000180BFFF0E000AED
:1000380002E1030E80191CE18151010A0BE1D50E82
:10004800E16E000EE26E8551E126D8B0E22ACBC1FE
:10005800E6FF852B8551320A02E1310E856FD50EF8
:10006800E16E000EE26E8551E126D8B0E22AE66A1A
:100078000101CB51400A1CE100018151000A0DE148
:10008800010E816F856BD50EE16E000EE26E855113
:10009800E126D8B0E22AE66A0BD08507D50EE16ED4
:1000A800000EE26E8551E126D8B0E22AE66A816B3D
:1000B80095D00001FF0E846F0101CB514F0A03E177
:1000C800010E0001866F0101CB513E0A03E10A0EC1
:1000D8000001866F0101CB51550A03E1780E00013A
:1000E800866F9ED00101CB514B0A05E10001846B5C
:1000F800140E866F02D00001866B92D00101CB519D
:10010800200A09E1010E0001876F010E846F010EBC
:10011800806F866B85D00101CB510D0A04E1150E65
:100128000001866F02D00001866B7AD00101CB51A5
:100138000A0A10E1010E0001876F000E80BFFF0E52
:10014800000A02E1030E801903E1010E0101076FA5
:1001580084C080F00001866B0101CB514E0A04E196
:10016800790E0001866F02D00001866B59D001011B
:10017800CB51520A04E17A0E0001866F02D00001C9
:10018800866B4ED00101CB51450A04E17B0E00017C
:10019800866F02D00001866B43D00101CB51410A22
:1001A80004E17C0E0001866F02D00001866B38D016
:1001B8000101CB51440A0DE1010E0001876F030EC6
:1001C800846F030E806F856BD56B0101076B00018F
:1001D800816B0001866B24D0866B22D0000186518A
:1001E800000AD8B466D78651010AD8B47BD786519D
:1001F8000A0A84E08651140A8EE08651150A96E0B0
:100208008651780AA9E08651790AB1E086517A0ABE
:10021800B9E086517B0AC1E086517C0AC9E0DCD787
:100228005AD00101CB51220A04E1010E0001826F6C
:10023800836B5CD00101CB512B0A18E1080EE16EEB
:10024800010EE26E00018351E126D8B0E22ACBC14B
:10025800E6FF832B080EE16E010EE26E8351E12664
:10026800D8B0E22AE66A020E826F03D00001826BE0
:10027800836B3CD0300E0101CB5D19E3CB513908BB
:1002880016E3080EE16E010EE26E00018351E126CD
:10029800D8B0E22ACBC1E6FF832B080EE16E010E2F
:1002A800E26E8351E126D8B0E22AE66A0DD0010158
:1002B800CB51220A04E10001836B826B05D0010156
:1002C800086B0001836B826B11D00101086B000180
:1002D800836B826B0BD000018251000AA2E082512D
:1002E800010AA8E08251020AC5E0EFD717C000F062
:1002F80016C001F015C002F018C0E1FF19C0E2FFF6
:020308001100E2
:10030A003A0E0C6E230E0D6E0D2EFED70C2EFCD758
:02031A001200CF
:0A031C00850E0D6E0D2EFED71200A7
:0C032600020E0D6E0D2EFED7000012001E
:100332000101CABF02D0819601D08186CABD02D016
:10034200819401D08184CABB02D0819201D0818282
:10035200CAB902D0819001D081805EB102D0818879
:1003620001D08198818ADEDF819ACAB702D0819654
:1003720001D08186CAB502D0819401D08184CAB3EA
:1003820002D0819201D08182CAB102D0819001D083
:1003920081805EB102D0818801D08198818AC2DFDA
:0E03A200819A5EA102D0B0DF01D0B7DF120059
:0E03B00001015E91C9C1CAF1BCDF5E8112007D
:0C03BE0072B201D0FDD7C9C173FF12005C
:0E03CA00ACB202D00000FCD7C9C1ADFF1200DA
:1003D8000001875304E0876B80C000F002D0FF0E55
:0403E800006E120091
:1003EC0010D0800E0101C46F1AD0C00EC46F17D08C
:1003FC00940EC46F14D0D40EC46F11D0800EC46F81
:10040C000ED00101C451010AECE0C451020AEDE026
:10041C00C451030AEDE0C451040AEDE0EFD7C50561
:10042C00006EC451002600C0C4F100C0CAF17BDFCD
:10043C005E91C86BC851C625E96E000EC721EA6EE5
:10044C00EE520BE0C851C625E96E000EC721EA6ECC
:0E045C00EECFC9F1A7DFC82BEDD75E811200ED
:10046A00F250026EF29E0500FF6A0150FE6E0050C5
:08047A00FD6E02BEF28E1200BD
:0A048200000EA4BA010E006E120075
:0A048C00000E72B2010E006E1200A5
:0A049600000EACB2010E006E120061
:1004A000AECF01F0ABA202D0AB98AB8801C000F098
:0204B000120038
:0A04B200000E9EBA010E006E12004B
:1004BC0074CF01F071A202D07198718801C000F064
:0204CC0012001C
:1004CE00C0C104F0C1C105F004C0E9FF05C0EAFFD8
:1004DE00EE5203E0044A052AF7D704C002F005C025
:1004EE0003F0044A052AC2C100F0C3C101F00101A4
:1004FE00C24BC32B00C0E9FF01C0EAFF02C0E1FFFF
:10050E0003C0E2FFEECFE6FF02C0E9FF03C0EAFF41
:10051E00EE5201E0E2D7C0C100F0C1C101F01200FD
:10052E00010E0101C26FC25310E04FDF00C0C1F1D6
:10053E0000500101C01907E0000E000A02E1020E90
:0C054E00C11901E001D0C26BEED7120011
:10055A00C0C1E9FFC1C1EAFFEE5213E050C1E1FF99
:10056A0051C1E2FFC0C1E9FFC1C1EAFFEECFE6FF18
:10057A004EC100F04FC101F073DF0101C04BC12B26
:10058A00E7D750C1E1FF51C1E2FF0D0EE66E4EC141
:0A059A0000F04FC101F064DF120011
:1005A400C0C104F0C1C105F004C002F005C003F0ED
:1005B400044A052AC2C100F0C3C101F00101C24BC3
:1005C400C32B00C0E9FF01C0EAFF02C0E1FF03C082
:1005D400E2FFEECFE6FF02C0E9FF03C0EAFFEE52FE
:0E05E40001E0E2D7C0C100F0C1C101F0120079
:1005F200010E0101CA6F9CDE010EC46F010EC56FB0
:100602006E0EC66F010EC76FF0DE020EC46F010ED2
:0E061200C56F5F0EC66F010EC76FE7DE1200E8
:10062000939A93989390939293949396819A8198A6
:10063000819681948192819068DE67DE66DE818298
:100640008180818A70DE819A60DE818A6CDE819A87
:100650005CDE818A68DE819A58DE8190818A63DE61
:10066000819A53DE818A5FDE819A81928186818AB6
:100670005ADE819A4ADE81968180818A54DE819A8F
:100680008190818A50DE819A40DE818A4CDE819A97
:100690008180818A48DE819A38DE8190818A43DEBA
:1006A000819A8186818481828180818A3CDE819ADF
:0806B0002CDE01015E81120045
:1006B8007A0E0B6EC10E0C6E810E0D6E0D2EFED7CE
:0E06C8000C2EFCD70B2EFAD7000000001200FB
:1006D6006E0E0101C06F010EC16F1E0EC26F010EBC
:1006E600C36F5DDF5F0EC06F010EC16F1C0EC26F60
:1006F600010EC36F54DF7ADF7D0EC06F010EC16F2E
:10070600440EC26F010EC36F4ADF7D0EC06F010E2D
:10071600C16F300EC26F010EC36FD6DE7D0EC06F85
:10072600010EC16F2E0EC26F010EC36FCDDE7D0EA0
:10073600C06F010EC16F0EDF010E0101C06FF4DE46
:1007460032D09F0EC06F010EC16F5A0EC26F000EDF
:10075600C36F25DF35D09F0EC06F010EC16F600ECF
:10076600C26F000EC36F1BDF2BD09F0EC06F010E32
:10077600C16F4D0EC26F000EC36F11DF21D09F0EE9
:10078600C06F010EC16F2D0EC26F000EC36F07DF63
:1007960017D09F0EC06F010EC16F3C0EC26F000EC8
:1007A600C36FFDDE0DD09E51010ACBE09E51020AB9
:1007B600D2E09E51030AD9E09E51040AE0E0E9D74F
:1007C6009F0EC06F010EC16FC5DE50C1E1FF51C162
:1007D600E2FF1A0EE66E4EC100F04FC101F042DE96
:1007E60050C1E1FF51C1E2FF0D0EE66E4EC100F0B1
:1007F6004FC101F037DE0101C06B96DE00016F6B61
:100806006E0E0101C06F010EC16F700EC26F000E39
:10081600C36FC5DE5F0EC06F010EC16F9F0EC26F44
:0A082600010EC36FBCDEE2DE12001B
:100830000900F5CFE6FF0006FBE10106F9E1120031
:10084000CA0E01014E6F030E4F6FC90E506F010E9D
:10085000516FA00E5A6F040E5B6F000E5C6F000E9E
:100860005D6FB20E526F040E536F000E546F000E88
:10087000556F960E566F040E576F000E586F000E90
:10088000596FAC8A900EAB6E948E949C9EAA03D046
:08089000AECF00F0FBD712000F
:1008980046EC06F00F01386B396B3A6B3B6B3C6BDF
:1008A800606A949094928B908B92928895908C80A9
:1008B800B886030EB06E400EAF6EAC84BDDF0D0E71
:1008C8000B6E2D0E0C6ED70E0D6E0D2EFED70C2E48
:1008D800FCD70B2EFAD7000000009D8AF28CF28E0E
:1008E80096928D9296908D9097DE010ECA6F1DDDBF
:1008F8000C0ECA6F1ADD6E0EC06F010EC16F240E8A
:10090800C26F000EC36F4ADE5F0EC06F010EC16F6B
:10091800220EC26F000EC36F41DE67DE8D82660E47
:100928000B6E760E0C6EC10E0D6E0D2EFED70C2EB4
:10093800FCD70B2EFAD78D92BBDE8C907D0EC06F44
:10094800010EC16F1A0EC26F000EC36F27DE40DDA5
:10095800000E00BEFF0E000A02E1000E001815E0AE
:10096800AB92AB947D0E0101C06F010EC16FF1DD3A
:10097800050E0B6E0F0E0C6EF10E0D6E0D2EFED7C2
:100988000C2EFCD70B2EFAD7E2D77D0E0101C06FD3
:10099800010EC16F1D0EC26F000EC36FFFDD7D0E0D
:1009A800C06F010EC16FD5DD0101C06BBCDD7D0ECE
:1009B800C06F010EC16FA50EC26F000EC36FEEDDD2
:1009C8007D0EC06F010EC16FC4DD0101C06BABDDD0
:1009D8007D0EC06F010EC16FAF0EC26F000EC36FE8
:1009E800DDDDF6DC000E00BEFF0E000A02E1000E9F
:1009F800001814E07D0E0101C06F010EC16FA9DD62
:100A0800150E0B6E4B0E0C6EBE0E0D6E0D2EFED718
:100A18000C2EFCD70B2EFAD70000E3D76E0E01017F
:100A2800C06F010EC16F960EC26F000EC36FB6DDA8
:100A38005F0EC06F010EC16F880EC26F000EC36FCC
:100A4800ADDDD3DD00019551010A02E1F40E9419E0
:100A58001FE17D0E0101C06F010EC16FBB0EC26F99
:100A6800000EC36F9BDD7D0EC06F010EC16F71DD7F
:100A7800090E0B6E1E0E0C6EE40E0D6E0D2EFED7BB
:100A88000C2EFCD70B2EFAD700000001946B956B47
:100A9800944B952B680E0C6EE40E0D6E0D2EFED742
:100AA8000C2EFCD700000101075344E0076B6E0EC3
:100AB800C06F010EC16F080EC26F010EC36F6EDDED
:100AC8005F0EC06F010EC16FD50EC26F000EC36FEF
:100AD80065DD8BDDD00E0C6EC90E0D6E0D2EFED7AA
:100AE8000C2EFCD7000000007D0EC06F010EC16FF8
:100AF800C90EC26F000EC36F51DD6ADC000E00BE66
:100B0800FF0E000A02E1000E001814E07D0E01013C
:100B1800C06F010EC16F1DDD150E0B6E4B0E0C6EF6
:100B2800BE0E0D6E0D2EFED70C2EFCD70B2EFAD74F
:100B38000000E3D780B80AD000016F51000A06E12F
:100B4800010E6F6F020E01019E6FC1DD7BD7FFD7CB
:100C8C0010EE1AF0340E006E020E016E580EF66E57
:0E0C9C000B0EF76E000EF86E18EC04F012004E
:030B580041540005
:050B5B0041544530008B
:020B60002A0069
:090B6200496E69742047534D00EF
:0F0B6B0050696C6C756C69657220766964650001
:100B7A00416E6F6D616C69652073797374656D651B
:010B8A00006A
:0D0B8B0050622063617264696171756500DC
:060B98004368757465005E
:0F0B9E004D65646F63206E6F6E20707269730017
:010BAD000047
:100BAE006D65737361676520656E766F79653A0062
:010BBE00FF37
:010BBF000035
:010BC0000034
:010BC1000033
:010BC200FF33
:010BC3000031
:010BC4000030
:010BC500002F
:0C0BC60047534D207465726D696E650028
:020BD200000021
:0F0BD400496E697469616C69736174696F6E0051
:0A0BE30041542B434D47463D3100BD
:0C0BED0041542B434D47443D312C340053
:0E0BF90041542B434D474C3D22414C4C2200B1
:0C0C070041542B434D47443D312C340038
:100C130000000000000000000000000000000000D1
:100C230000000000000000000000000000000000C1
:100C330000000000000000000000000000000000B1
:020C43000000AF
:010C450000AE
:100C4600000000000000000000000000000000009E
:040C5600000000009A
:020C5A002A006E
:100C5C00726F7574696E65206D657373616765007D
:020C6C00220064
:100C6E002B33333735333733393338350000000003
:040C7E000000000072
:0A0C820041542B434D47533D22001F
:020000040030CA
:0D000100331F3CFFBF81FF0FC00FE00F4019
:00000001FF
